:100000000C9462000C948A000C948A000C948A0070
:100010000C948A000C948A000C948A000C94330689
:100020000C948A000C948A000C948A000C94EF06BD
:100030000C948A000C948A000C948A000C948A0018
:100040000C94E9050C948A000C94B7050C94910566
:100050000C948A000C948A000C948A000C948A00F8
:100060000C948A000C948A000000000024002700F1
:100070002A0000000000250028002B0000000000DE
:1000800023002600290004040404040404040202DA
:100090000202020203030303030301020408102007
:1000A0004080010204081020010204081020000012
:1000B0000008000201000003040700000000000027
:1000C0000000F00711241FBECFEFD8E0DEBFCDBF88
:1000D00011E0A0E0B1E0E8E2FAE202C005900D9282
:1000E000AE36B107D9F723E0AEE6B1E001C01D920C
:1000F000A133B207E1F710E0C2E6D0E004C02197D7
:10010000FE010E940C15C136D107C9F70E94600894
:100110000C9412150C940000CF92DF92EF92FF9294
:10012000DC01A03282E0B807D4F5A53BB10514F09C
:10013000A4EBB0E040912F0328E830E0241B310904
:1001400047FD3395220F331F220F331F6901330FF1
:10015000EE08FF084091300328E532E0241B310906
:1001600047FD3395220F331F220F331F032E000C40
:10017000440B550B2C193D094E095F09B7FF02C00E
:10018000B0E0A0E00E94481224EB30E040E050E0F4
:100190000E941E12C20ED31EE41EF51ED601E0916F
:1001A0002E03EC3080F520912F0388E890E0821B2D
:1001B000910927FD9395880F991F880F991FA817FC
:1001C000B90784F02091300388E592E0821B910901
:1001D00027FD9395880F991F880F991FA817B907B6
:1001E0000CF4CD010297880F991F4FB7F8942E2F6A
:1001F00030E0F901EE0FFF1FE20FF31FEB5FFC4F42
:10020000928381834FBFFF90EF90DF90CF9008954E
:10021000AF92BF92CF92DF92EF92FF920F931F9314
:10022000CF93DF936C017B018B01040F151FEB0152
:100230005E01AE18BF08C017D10759F06991D60109
:10024000ED91FC910190F081E02DC6010995892B7B
:1002500079F7C501DF91CF911F910F91FF90EF903A
:10026000DF90CF90BF90AF900895FC01538D448DE7
:10027000252F30E0842F90E0821B930B541710F051
:10028000CF96089501970895FC01918D828D98175E
:1002900061F0A28DAE0FBF2FB11D5D968C91928D36
:1002A0009F5F9F73928F90E008958FEF9FEF089567
:1002B000FC01918D828D981731F0828DE80FF11D30
:1002C000858D90E008958FEF9FEF0895FC01918D4B
:1002D000228D892F90E0805C9F4F821B91098F7344
:1002E0009927089586E991E00E94660121E0892B13
:1002F00009F420E0822F089580E090E0892B29F016
:100300000E94720181110C9400000895FC01A48DDB
:10031000A80FB92FB11DA35ABF4F2C91848D90E027
:1003200001968F739927848FA689B7892C93A0890A
:10033000B1898C91837080648C93938D848D981394
:1003400006C00288F389E02D80818F7D8083089527
:10035000EF92FF920F931F93CF93DF93EC0181E015
:10036000888F9B8D8C8D98131AC0E889F9898081BC
:1003700085FF15C09FB7F894EE89FF896083E889EF
:10038000F98980818370806480839FBF81E090E0E1
:10039000DF91CF911F910F91FF90EF900895F62E6E
:1003A0000B8D10E00F5F1F4F0F731127E02E8C8D08
:1003B0008E110CC00FB607FCFACFE889F98980814D
:1003C00085FFF5CFCE010E948601F1CFEB8DEC0FBA
:1003D000FD2FF11DE35AFF4FF0829FB7F8940B8F6A
:1003E000EA89FB8980818062CFCFCF93DF93EC01D4
:1003F000888D8823B9F0AA89BB89E889F9898C910D
:1004000085FD03C0808186FD0DC00FB607FCF7CFC8
:100410008C9185FFF2CF808185FFEDCFCE010E94C8
:100420008601E9CFDF91CF910895833081F028F4E0
:10043000813099F08230A9F008958730A9F0883092
:10044000C9F08430B1F4809180008F7D03C0809129
:1004500080008F7780938000089584B58F7784BD66
:10046000089584B58F7DFBCF8091B0008F77809306
:10047000B00008958091B0008F7DF9CFCF93DF93C6
:10048000282F30E0F901E255FF4F8491F901E6563B
:10049000FF4FD491F901EA57FF4FC491CC23A1F04B
:1004A00081110E941502EC2FF0E0EE0FFF1FE458BF
:1004B000FF4FA591B491EC91ED2381E090E009F418
:1004C00080E0DF91CF91089580E090E0FACF1F9314
:1004D000CF93DF93282F30E0F901E255FF4F84914D
:1004E000F901E656FF4FD491F901EA57FF4FC49145
:1004F000CC23A9F0162F81110E941502EC2FF0E0F9
:10050000EE0FFF1FEE58FF4FA591B4918FB7F894EF
:10051000EC91111108C0D095DE23DC938FBFDF91E1
:10052000CF911F910895DE2BF8CFCF93DF9390E00A
:10053000FC01E656FF4F24918A579F4FFC0184919E
:100540008823D1F090E0880F991FFC01E859FF4FF4
:10055000A591B491FC01EE58FF4FC591D491611162
:100560000EC09FB7F8948C91E22FE0958E238C9368
:100570002881E223E8839FBFDF91CF9108958FB751
:10058000F894EC91E22BEC938FBFF6CF3FB7F89441
:100590008091700190917101A0917201B0917301ED
:1005A00026B5A89B05C02F3F19F00196A11DB11DCE
:1005B0003FBFBA2FA92F982F8827BC01CD01620F0A
:1005C000711D811D911D42E0660F771F881F991FC5
:1005D0004A95D1F708958F929F92AF92BF92CF9292
:1005E000DF92EF92FF926B017C010E94C6024B01E9
:1005F0005C01C114D104E104F104B9F00E94C60207
:10060000681979098A099B09683E7340810591053B
:1006100080F321E0C21AD108E108F10888EE880EC3
:1006200083E0981EA11CB11CE4CFFF90EF90DF90F7
:10063000CF90BF90AF909F908F900895CF92DF9210
:10064000EF92FF92CF93DF93EC01072E000C880B03
:10065000990B0E949D136B017C0120E030E040E487
:100660005FE30E944D1420E030E048E452E40E9431
:10067000F3120E946513C617D707D4F020E030E0CC
:1006800040EA5FE3C701B6010E944D1420E030E06C
:1006900048E452E40E94F31220E030E040E85FE3D7
:1006A0000E9482120E94651321E06C177D070CF4F2
:1006B00020E0822F90E0DF91CF91FF90EF90DF90CC
:1006C000CF9008958F929F92AF92BF92CF92DF9278
:1006D000EF92FF920F931F93CF93DF93FC01208142
:1006E0003181E0919201F091930101E010E02E1729
:1006F0003F070CF045C0D901AA0FBB1FE091900144
:10070000F0919101EA0FFB1FA080B1808901009553
:1007100010950170112720FD27C02CE93FEFEA0159
:100720006B017C014901840E951EB401C5010E9434
:100730001E0321E030E0892BD1F48C0E9D1EB40104
:10074000C5010E941E0322E030E0892B81F4BE0126
:10075000680D791DC5010E941E0323E030E0892B3E
:1007600031F40FEF1FEF0CC024E630E0D8CFF601D4
:100770008081918101968217930784F4918380830D
:10078000C801DF91CF911F910F91FF90EF90DF9003
:10079000CF90BF90AF909F908F900895118210825C
:1007A000F701808191810196E9CF60E085E00E94A8
:1007B000670260E086E00C946702CF93C82F61E087
:1007C0000E949502EC2FF0E0E255FF4FE491E330F8
:1007D00049F148F4E130C9F0E230F1F061E08C2FEA
:1007E000CF910C946702E73049F1E83081F1E430B1
:1007F000A9F78091800080628093800086E990E074
:1008000090938B0080938A0005C084B5806884BD76
:1008100086E987BDCF91089584B5806284BD86E95D
:1008200088BDF8CF8091800080688093800086E941
:1008300090E09093890080938800ECCF8091B00085
:1008400080688093B00086E98093B300E3CF809105
:10085000B00080628093B00086E98093B400DACF64
:10086000FC0101900020E9F73197AF01481B590BBB
:10087000BC0186E991E00C9408018F929F92AF929F
:10088000BF920F931F93CF93DF93CDB7DEB7A1979E
:100890000FB6F894DEBF0FBECDBF19A2423008F4E8
:1008A0004AE08E010F5D1F4F842E912CB12CA12C9C
:1008B000A50194010E945012E62FB901CA01EA3045
:1008C000F4F4E05DD801EE938D01232B242B252B2E
:1008D00079F790E080E0109719F0CD010E94300484
:1008E000A1960FB6F894DEBF0FBECDBFDF91CF91BA
:1008F0001F910F91BF90AF909F908F900895E95CEA
:10090000E1CFCF92DF92EF92FF92CF93DF936C0112
:10091000990FEE08FF08F7FE19C06DE286E991E035
:100920000E94A801EC0166277727CB016C197D098D
:100930008E099F094AE00E943D048C0F9D1FDF91A4
:10094000CF91FF90EF90DF90CF9008954AE0C701DC
:10095000B601DF91CF91FF90EF90DF90CF900C9494
:100960003D040C943004CF92DF92EF92FF920F93EC
:100970001F93CF93C82F61E08DE00E94670260E073
:1009800083E10E94670283E090E00197F1F761E064
:1009900083E10E9467028BE490E00197F1F760E049
:1009A00083E10E946702ECEAF0E06491E8E9F0E09C
:1009B000E491F0E0EE0FFF1FE458FF4F8591949112
:1009C00000E412E42FE030E0462F0E94AB076115EF
:1009D00071058105910529F06F5F7F4F8F4F9F4F04
:1009E0009F700E949B1320E030E048E652E40E9492
:1009F000F3126B017C0160E08DE00E946702CC2362
:100A0000F1F020E030E048EC52E4C701B6010E946A
:100A1000EE1287FF08C0C701B6010E9465137093EC
:100A20002D0360932C0380912C0390912D03CF9183
:100A30001F910F91FF90EF90DF90CF900895C70125
:100A4000B6010E946513CB01F2CF82E00E943E0204
:100A50000E94810489E191E00E94B10484E00E9437
:100A60003E020E94810489E191E00E94B1048AE083
:100A70000E943E020E94810489E191E00E94B1043B
:100A800081E00E94B3040E94810489E191E00E9408
:100A9000B1048091790190917A010E94810489E1E9
:100AA00091E00E94B10480917B0190917C010E94B1
:100AB000810410927A011092790110927C011092B7
:100AC0007B0108950F931F93CF93DF938C0164EF05
:100AD00071E080E090E00E94EB02C8010E948C006F
:100AE00080E00E94B304EC018BE191E00E94B1042C
:100AF000C8010E94810481E291E00E94B104BE011C
:100B000090E080E04AE00E943D048AE191E00E948A
:100B100030048DE291E0DF91CF911F910F910C9401
:100B200030041F920F920FB60F9211242F933F9310
:100B30004F935F936F937F938F939F93AF93BF93E5
:100B4000EF93FF9386E991E00E948601FF91EF9178
:100B5000BF91AF919F918F917F916F915F914F91D5
:100B60003F912F910F900FBE0F901F9018951F92DD
:100B70000F920FB60F9211242F938F939F93EF93A1
:100B8000FF93E091A601F091A7018081E091AC0173
:100B9000F091AD0182FD1BC090818091AF018F5F0C
:100BA0008F732091B001821741F0E091AF01F0E026
:100BB000EA56FE4F958F8093AF01FF91EF919F9181
:100BC0008F912F910F900FBE0F901F9018958081DD
:100BD000F4CF1F920F920FB60F9211242F933F93D1
:100BE0008F939F93AF93BF9380917D0190917E01EE
:100BF000A0917F01B091800130916F0123E0230F1C
:100C00002D3758F50196A11DB11D20936F018093DA
:100C10007D0190937E01A0937F01B093800180912C
:100C2000700190917101A0917201B09173010196D0
:100C3000A11DB11D8093700190937101A093720169
:100C4000B0937301BF91AF919F918F913F912F917D
:100C50000F900FBE0F901F90189526E8230F029655
:100C6000A11DB11DD2CF1F920F920FB60F9211246A
:100C70002F933F934F935F936F937F938F939F93A4
:100C8000AF93BF93EF93FF93809134020E943E0293
:100C900020913802309139022F5F3F4F3093390253
:100CA0002093380290913702953618F096E0909391
:100CB000330290913302943009F466C0B8F4923054
:100CC000F1F0933009F444C090913602992309F46D
:100CD0006BC081117AC080913502882309F463C00A
:100CE0008091350261E00E9467025EC0953009F490
:100CF00057C0963049F791E0909304034FC081119B
:100D0000E3CF20913802309139022436310528F49E
:100D10001092390210923802D7CF10920403109229
:100D20003702E091370291E09E0F90933702F0E096
:100D30002091380230913902EE0FFF1FED5CFD4F1C
:100D400030872783109239021092380293E019C03D
:100D5000813009F0B9CFE091370291E09E0F909376
:100D60003702F0E02091380230913902EE0FFF1F78
:100D7000ED5CFD4F308727831092390210923802C4
:100D800094E090933302A0CF882359F22091380247
:100D9000309139022536310508F496CF95E0F1CF30
:100DA000811192CFB5CF2D9AFF91EF91BF91AF9165
:100DB0009F918F917F916F915F914F913F912F9173
:100DC0000F900FBE0F901F901895809135028823C9
:100DD00021F08091350260E086CF2D98E5CF1F92FB
:100DE0000F920FB60F9211242F933F934F935F935F
:100DF0006F937F938F939F93AF93BF93CF93DF9323
:100E0000EF93FF9380916E01C0912903D0E087FF9B
:100E100024C0109285001092840080916E018F5F33
:100E200080936E0180916E01082E000C990B8C1737
:100E30009D0724F480916E018C30C4F18091840070
:100E400090918500049680349C4908F47AC0809182
:100E5000840090918500049676C080916E01082EE2
:100E6000000C990B8C179D07C4F6E0916E018E2F34
:100E7000EE0F990BFC01EE0FFF1FE80FF91FEB5F60
:100E8000FC4F808186FFC9CFE0916E018E2FEE0F5F
:100E9000990BFC01EE0FFF1FE80FF91FEB5FFC4FF2
:100EA000808160E08F730E946702B7CF2091840039
:100EB00030918500E0916E018E2FEE0F990BFC01B1
:100EC000EE0FFF1FE80FF91FEB5FFC4F818192814E
:100ED000820F931F9093890080938800E0916E01A8
:100EE0008E2FEE0F990BFC01EE0FFF1FE80FF91F7D
:100EF000EB5FFC4F808186FF11C0E0916E018E2F69
:100F0000EE0F990BFC01EE0FFF1FE80FF91FEB5FCF
:100F1000FC4F808161E08F730E946702FF91EF9127
:100F2000DF91CF91BF91AF919F918F917F916F9101
:100F30005F914F913F912F910F900FBE0F901F9097
:100F4000189580E49CE990938900809388008FEF46
:100F500080936E01E3CFCF92DF92EF92FF920F93D7
:100F60001F93E82FF92F05C00150110921093109FC
:100F700061F1908196239417B9F305C001501109CE
:100F80002109310911F1908196239413F7CFC12CD7
:100F9000D12CE12CF12C0AC08FEFC81AD80AE80A2C
:100FA000F80A0C151D052E053F0579F08081862372
:100FB000841791F36C2D7D2D8E2D9F2D1F910F91F8
:100FC000FF90EF90DF90CF90089560E070E080E0B8
:100FD00090E01F910F91FF90EF90DF90CF900895D8
:100FE000109299011092980188EE93E0A0E0B0E091
:100FF00080939A0190939B01A0939C01B0939D01D3
:101000008BE091E0909397018093960185EC90E0BE
:101010009093A3018093A20184EC90E09093A501AA
:101020008093A40180EC90E09093A7018093A601A7
:1010300081EC90E09093A9018093A80182EC90E06C
:101040009093AB018093AA0186EC90E09093AD0160
:101050008093AC011092AF011092B0011092B101D7
:101060001092B201809129038C3030F591E0980FF5
:101070009093290380932E0390E0FC01EE0FFF1F55
:10108000E80FF91FEB5FFC4F88EB9BE092838183B5
:1010900084E690E090932D0380932C038CE0809362
:1010A00034021092360280910501909106019093CE
:1010B0002B0380932A0308958FEF80932E03E8CFAC
:1010C000CF93DF93CDB7DEB72C970FB6F894DEBF82
:1010D0000FBECDBF789484B5826084BD84B5816035
:1010E00084BD85B5826085BD85B5816085BD8091F3
:1010F0006E00816080936E0010928100809181006B
:101100008260809381008091810081608093810062
:10111000809180008160809380008091B100846024
:101120008093B1008091B00081608093B000809185
:101130007A00846080937A0080917A008260809344
:101140007A0080917A00816080937A0080917A00A1
:10115000806880937A001092C10084E690E0A0E05D
:10116000B0E08093000190930101A0930201B0933D
:1011700003018DE290E09093060180930501E091D8
:10118000A601F091A70182E08083E091A201F09195
:10119000A3011082E091A401F091A5018FEC80835E
:1011A0001092AE01E091AA01F091AB0186E080833C
:1011B000E091A801F091A901808180618083E09194
:1011C000A801F091A901808188608083E091A80145
:1011D000F091A901808180688083E091A801F0915D
:1011E000A90180818F7D808361E087E00E94950264
:1011F00061E088E00E94950261E089E00E9495022A
:1012000061E08BE00E94950261E085E00E9495021A
:1012100061E086E00E94950280912E038C3008F0F8
:1012200052C061E083E00E94950280912E03282F36
:1012300030E0F901EE0FFF1FE20FF31FEB5FFC4FF1
:101240009081907C9360908399ED90932F031092FE
:1012500030032CE0622F0E94CA14829FB001112437
:1012600030E020E0AB01420F531FFA01EE0FFF1FE9
:10127000E40FF51FEB5FFC4F908196FD16C02F5FCA
:101280003F4F2C30310571F781110FC01092800053
:1012900082E0809381001092850010928400B19AC0
:1012A00080916F00826080936F00E0912E038E2FFB
:1012B00090E0FC01EE0FFF1FE80FF91FEB5FFC4F02
:1012C00080818064808380910501909106010E9455
:1012D0008C0060E082E10E94950261E083E10E945F
:1012E000950260E08AE00E94950260E084E00E943E
:1012F000950260E082E00E94950261E08DE00E942C
:101300009502F89482E08093B0008093B10094E657
:101310009093B3001092B200809370007894809301
:101320003302109237028091340260E00E949502ED
:101330000E94D5038DE291E00E94300480E391E0A9
:101340000E94B10486E691E00E94B1048DE291E032
:101350000E9430040E94250544244A94542C3201F2
:10136000A0E22A2E312C8AE392E09093910180939F
:1013700090018091370290E09093930180939201C5
:101380008091040390E09093950180939401809163
:101390003302853009F09DC680913C0290913D0258
:1013A000885891098D35910508F051C08091370218
:1013B000843009F580913E0290913F0280974797D3
:1013C000D0F480914002909141020997099798F4D6
:1013D00010928F0110928E0140928A0150928B01DF
:1013E00060928C0170928D0183E090E09093870170
:1013F000809386015AC380913702843440F18091F2
:101400003E0290913F02825491098E9700F590E040
:1014100080E040E050E0BA01FC01E05CFD4F20813B
:101420003181295031092930310588F4FC01EE5B06
:10143000FD4F20813181275131092231310510F1D1
:1014400020813181265031092730310588F1809182
:1014500037028A3108F461C080913A0290913B02D0
:10146000843F914050F510928F0110928E0140926E
:101470008A0150928B0160928C0170928D018BE0F9
:1014800090E0B4CF440F551F661F771F416004964C
:101490008038910509F630928F0120928E01409399
:1014A0008A0150938B0160938C0170938D019CCFC6
:1014B000440F551F661F771FEACF80913C02909121
:1014C0003D0285974B9748F5E3E3F2E082E090E038
:1014D000C12CD12C76019C012F5F3F4F40913702E8
:1014E0004217130609F00CF4F6C0438554854750A3
:1014F00051094730510508F0EDC025853685235147
:1015000031092F30310508F4D7C0258536852A509A
:1015100031092930310508F4D8C0809137028A3169
:1015200008F43FC080913A0290913B028032934090
:1015300008F499CF80913C0290913D02C69786971E
:1015400080F580913E0290913F02C697869748F5BC
:10155000E3E3F2E083E090E0C12CD12C76019C0122
:101560002F5F3F4F409137024217130609F00CF4EA
:10157000DAC0458556854C5051094B30510508F06D
:10158000D1C027853089255231092B31310508F426
:10159000BBC0278530892C5031092A30310508F429
:1015A000BCC080913702823238F180913C02909128
:1015B0003D020697079700F5E3E3F2E082E090E052
:1015C00040E050E0BA01DC011196209137022A1761
:1015D0001B0609F00CF4D3C0238534852E51310944
:1015E0002731310508F4B6C0238534852C503109E4
:1015F0002B30310508F4BDC01C821B82E1E0F0E015
:10160000FA83E983809137028D3008F4E9C049E715
:1016100053E0BE016D5F7F4FCE0101960E946203D1
:10162000892B09F0DDC049E753E0BE016D5F7F4FB4
:10163000CE0101960E946203019709F0D1C049E7EB
:1016400053E0BE016D5F7F4FCE0101960E946203A1
:101650008C01892B09F0C4C0812C912C540120915C
:10166000370289819A812817190609F00CF4A9C05C
:1016700049E753E0BE016D5F7F4FCE0101960E94A6
:1016800062037C0149E753E0BE016D5F7F4FCE01ED
:1016900001960E946203F1E0EF16F10409F088C0A0
:1016A000892B09F09DC0880C991CAA1CBB1C68944E
:1016B00080F80F5F1F4FD3CFCC0CDD1CEE1CFF1C3E
:1016C0006894C0F80296349606CFCC0CDD1CEE1C54
:1016D000FF1CF8CFC90101979595879590938F01CD
:1016E00080938E010C972CF410928F0110928E0132
:1016F00014CFC0928A01D0928B01E0928C01F092BB
:101700008D0184E090E072CECC0CDD1CEE1CFF1C41
:101710006894C0F80296349622CFCC0CDD1CEE1CE7
:10172000FF1CF8CFC90101979595879590938F017C
:1017300080938E010C972CF410928F0110928E01E1
:1017400030CFC0928A01D0928B01E0928C01F0924E
:101750008D0195CE440F551F661F771F416025856B
:1017600036853496235031092530310538F40296F8
:101770002ACF440F551F661F771FF1CFCD01019768
:101780009595879590938F0180938E0140972CF4C7
:1017900010928F0110928E012FCF40938A015093A7
:1017A0008B0160938C0170938D018CE090E01ECED4
:1017B000EF28B1F40197A1F4880C991CAA1CBB1C5A
:1017C00078CF10938F0100938E0180928A019092BE
:1017D0008B01A0928C01B0928D0181E090E006CE49
:1017E0001C821B82A1E0B0E0BA83A98380919201A0
:1017F00090919301181619060CF07EC0E0919001AB
:10180000F091910182E090E09A83898382819381B3
:1018100089974E9708F070C083E090E09A8389839F
:10182000848195810B970A9708F066C04CEB51E0D4
:10183000BE016D5F7F4FCE0101960E9462038C0155
:10184000892B09F059C04CEB51E0BE016D5F7F4F11
:10185000CE0101960E946203019709F04DC0812CD0
:10186000912C5401209192013091930189819A81A8
:10187000821793070CF0E2C04CEB51E0BE016D5FA4
:101880007F4FCE0101960E9462037C010330110557
:1018900039F14CEB51E0BE016D5F7F4FCE010196F7
:1018A0000E9462036C010330110561F44CEB51E0BE
:1018B000BE016D5F7F4FCE0101960E946203C81684
:1018C000D906D1F4E114F10409F4ABC0EA94EF288D
:1018D00099F4CD2889F4880C991CAA1CBB1CABC0B8
:1018E0004CEB51E0BE016D5F7F4FCE0101960E942F
:1018F0006203E816F90669F2E0919001F091910116
:1019000082819381C697869778F5848195814B97DC
:10191000459750F5DF0116967F0126ECE20EF11C8B
:1019200020E030E040E050E060E070E080E090E0F7
:101930000D911C9111970950110908301105A0F45F
:1019400012960D911C911397015111090D3011053B
:1019500008F487C012960D911C9113970450110939
:101960000530110508F4EDC080913702893380F10C
:1019700082819381895791098335910548F5848146
:101980009581CA97899720F59F012A5F3F4FC12C07
:10199000D12C760143E050E0D9016D917C911197F3
:1019A0006A5071096930710598F412966D917C91B5
:1019B0001397665171096131710508F4C6C012961A
:1019C0006D917C91665071096730710508F4ECC027
:1019D00080913702823209F0ECC0828193810A97AC
:1019E000099708F0E6C0A0913702B0E0A150B048D6
:1019F000AA0FBB1FAE0FBF1F8D919C910A9709972D
:101A000008F0D7C010928F0110928E0140928A0187
:101A100050928B0160928C0170928D0186E090E073
:101A2000E5CCCA94CD2809F067CF880C991CAA1C74
:101A3000BB1C689480F80F5F1F4F14CF10938F0169
:101A400000938E0180928A0190928B01A0928C016A
:101A5000B0928D01E2E0F0E0F0938701E09386011F
:101A600024C001E00E94D61421601496AE15BF0573
:101A700009F05ECF20938A0130938B0140938C0153
:101A800050938D0100E20E94F1142093880130935D
:101A9000890185E090E0909387018093860180E33F
:101AA00090E090938F0180938E012FB7F8948091EE
:101AB0007D0190917E01A0917F01B09180012FBFA7
:101AC0008093810190938201A0938301B09384015C
:101AD00080918A0190918B01A0918C01B0918D0130
:101AE0008093740190937501A0937601B093770170
:101AF00022E020933302109237028D39F2E69F07DD
:101B0000FFEFAF07B10509F4DDC308F048C38D3D11
:101B1000E2E29E07EFEFAE07B10509F471C308F0EA
:101B20002FC38B3B2DE1920721E5A207B10509F4F4
:101B3000C9C38D3F9240AF4FB10509F0CAC28EE5CF
:101B400060C301E00E94D61490CFD701C601880F70
:101B5000991FAA1FBB1F6C017D016894C0F84E5FDE
:101B60005F4F2C5F3F4F4B33510509F015CF9F015D
:101B70002A583F4FD9012D913C912A5031092930E3
:101B8000310508F025CF2CE130E030938F01209310
:101B90008E01C0928A01D0928B01E0928C01F0926A
:101BA0008D018AE090E022CCCC0CDD1CEE1CFF1CE9
:101BB000D6CF82819381895791098335910560F54C
:101BC00080913702813240F184819581CA9789974B
:101BD00018F59F012A5F3F4FC12CD12C760143E0BD
:101BE00050E0D9016D917C9111976A50710969306B
:101BF000710590F412966D917C911397665171095D
:101C00006131710580F112966D917C916650710978
:101C10006730710508F454C0828193818C54910916
:101C2000C59708F081C080913702843009F04DC01B
:101C3000848195818097479708F047C08681978176
:101C40000997099708F041C010928F0110928E01F8
:101C500040928A0150928B0160928C0170928D01AA
:101C600087E090E0C3CBD701C601880F991FAA1F58
:101C7000BB1F6C017D016894C0F84E5F5F4F2C5F05
:101C80003F4F4332510509F0ACCF9F012A5B3F4FD4
:101C9000D9012D913C912A5031092930310508F0A4
:101CA000BBCF20E130E030938F0120938E01C092B2
:101CB0008A01D0928B01E0928C01F0928D01AECE20
:101CC000CC0CDD1CEE1CFF1CD8CF80913702843475
:101CD00058F18481958189549109C39728F59F0112
:101CE0002A5F3F4FBF016A577F4FC12CD12C76012D
:101CF000D9014D915C9111974950510949305105D5
:101D000098F412964D915C911397465151094131C7
:101D1000510508F4A2C012964D915C9146505109AC
:101D20004730510508F4B6C0809137028634C0F1BF
:101D3000828193810C970B9798F5848195810997FF
:101D4000099770F5868197818C974F9748F5808524
:101D5000918589974D9720F59F01265F3F4FC12CB4
:101D6000D12C760145E050E0D9016D917C9111971D
:101D70006C5071096B30710598F412966D917C91DD
:101D800013976E5171096731710508F488C0129676
:101D90006D917C91695071096930710508F4ACC08E
:101DA00080913702883508F4B6C0828193818558C6
:101DB00091098B35910508F0AEC0848195818254DC
:101DC00091098E9708F0A7C08F01045C1F4F8DE129
:101DD00090E030E020E0409137024450550B8417EA
:101DE000950714F5A80142505109DA014D915C9113
:101DF000495051094830510508F08DC0BC016F5F52
:101E00007F4FD8014D915C91119747505109473050
:101E1000510508F476C04D915C9148515109423109
:101E2000510508F475C0CB0101979595879590935E
:101E30008F0180938E018A970CF46DC0C901330F16
:101E4000AA0BBB0B80938A0190938B01A0938C010A
:101E5000B0938D0189E090E0C9CAD701C601880F0F
:101E6000991FAA1FBB1F6C017D016894C0F82C5FED
:101E70003F4F2617370709F03BCF30928F01209252
:101E80008E01C0928A01D0928B01E0928C01F09277
:101E90008D01E6CECC0CDD1CEE1CFF1CE8CFD7017B
:101EA000C601880F991FAA1FBB1F6C017D01689492
:101EB000C0F84E5F5F4F2C5F3F4F4534510509F02E
:101EC00053CF9F0126573F4FD9012D913C912C5064
:101ED00031092B30310508F063CF30928F01209209
:101EE0008E01C0928A01D0928B01E0928C01F09217
:101EF0008D0188E090E07ACACC0CDD1CEE1CFF1C42
:101F0000D8CF220F331F216002960C5F1F4F63CF83
:101F1000220F331FF9CF80913702803279F5828109
:101F200093810697069750F58481958109970997C3
:101F300028F59F012A5F3F4FBF01625C7F4FC12C94
:101F4000D12C7601D9014D915C91119746505109E0
:101F50004630510598F412964D915C911397495172
:101F600051094331510508F489C012964D915C9195
:101F7000495051094930510508F4A1C0809192019E
:101F80009091930198878F8306970CF49DC0DF0191
:101F90001296BE83AD8385ECC82E8DE9D82E8CE1D8
:101FA000E82E81E8F82E03E010E0ED81FE816481E7
:101FB0007581A080B18090E080E00E949B136987CA
:101FC0007A878B879C87B50190E080E00E949B1305
:101FD0004B015C012DEC3CEC4CE45FE30E944D14A2
:101FE0009B01AC0169857A858B859C850E94EE12E8
:101FF000F0E0E0E087FD16C02DEC3CEC4CE45FE344
:1020000069857A858B859C850E944D149B01AC0166
:10201000C501B4010E94EE12E2E0F0E087FD02C0CB
:10202000E1E0F0E0A701960163E971E080E091E072
:102030000E94BA146F01FF0FEE08FF08C626D726CC
:10204000E826F9260F5F1F4F8D819E8102969E83A1
:102050008D83AF81B885A017B10709F0A6CFC092D4
:102060008A01D0928B01E0928C01F0928D01309226
:102070008F0120928E01EFEFFFEFEECCD701C6016A
:10208000880F991FAA1FBB1F6C017D016894C0F8BF
:102090002C5F3F4F2617370709F054CFEEE0F0E0F2
:1020A000F0938F01E0938E01C0928A01D0928B0150
:1020B000E0928C01F0928D018FE090E097C9CC0CFA
:1020C000DD1CEE1CFF1CE4CF82E0809333021092F3
:1020D000370280E28093850186E991E00E94440105
:1020E0008A3609F404C108F0F1C0813609F4FDC054
:1020F000843609F4F8C080937801809178018F3F8D
:1021000009F0F7C080E280938501809100019091F1
:1021100001012FB7F89440917D0150917E016091AB
:102120007F01709180012FBF009181011091820188
:102130002091830130918401401B510B620B730B82
:10214000092E000CAA0BBB0B84179507A607B7072F
:1021500008F0DDC00E94D5032FB7F89480917D016F
:1021600090917E01A0917F01B09180012FBF80935B
:10217000810190938201A0938301B0938401C7C031
:102180008D3BF2E49F07FFEFAF07B10531F08D3AC9
:102190009245AF4FB10509F09CCF8AE232C08B3B2C
:1021A000EDE49E07EEEFAE07E0E2BE0779F080F4C3
:1021B000873528EA92072FEFA207B10509F484C0FA
:1021C0008D33924CAF4FB10509F083CF82E519C032
:1021D0008B3DFDEE9F07F8ECAF07F3EABF0709F46C
:1021E00073C08B312BE4920728EEA20727EDB207CC
:1021F00009F4A5CC8F31944DA34AB24509F069CFBB
:102200008CE4809385012FB7F89480917D019091A3
:102210007E01A0917F01B09180012FBF8093810149
:1022200090938201A0938301B093840180918501F2
:10223000823509F4E5C008F064C0843409F4C0C0F4
:102240008C3409F4D1C08A3209F061C00E94D503F0
:1022500090E080E00E948C0064EF71E080E090E00C
:102260000E94EB0280E00E94B30490937C01809373
:102270007B018AE590E00E948C0064EF71E080E0D1
:1022800090E00E94EB0280E00E94B30490937A01F8
:102290008093790164EF71E080E090E00E94EB02AE
:1022A00080910501909106010E948C0064EF71E01D
:1022B00080E090E00E94EB0280918501803209F07D
:1022C0005CC025C085E59DCF84E49BCF833749F072
:1022D000873729F08C3609F00ECF83E20CCF85E5E5
:1022E0000ACF84E408CF82E506CF8CE404CF8AE2EB
:1022F00002CF8093040180938501803209F083CF5F
:1023000004CF853609F494C0C0F4853501F181E02D
:102310000E94B30468EC70E080E090E00E94EB0261
:1023200080E090E0892B09F41EC80E947201882386
:1023300009F416C80E94000013C8813709F46CC064
:10234000823729F780910501909106016AC085E0E6
:102350000E94DD0386E00E94DD0361E087E00E94C9
:10236000670260E088E00E94670260E089E00E9406
:10237000670261E08BE00E94670289E191E00E94C0
:10238000B1046091040186E991E00E94A8018DE208
:1023900091E00E943004C0900001D0900101E090D3
:1023A0000201F0900301C701B6010E94EB020E94F6
:1023B000D503C701B6010E94EB020E942505A7CFF5
:1023C00085E00E94DD0386E00E94DD0360E087E097
:1023D0000E94670261E088E00E94670261E089E094
:1023E0000E94670260E0C6CF85E00E94DD0386E0C0
:1023F0000E94DD0360E087E00E94670261E0B2CFE7
:1024000085E00E94DD0386E00E94DD0361E087E055
:102410000E94670260E0DFCF80912A0390912B0336
:10242000059690932B0380932A030E9462056FCF39
:1024300080912A0390912B030597F3CF052E97FBEC
:102440001EF400940E94351257FD07D00E945012CE
:1024500007FC03D04EF40C943512509540953095FE
:1024600021953F4F4F4F5F4F089590958095709500
:1024700061957F4F8F4F9F4F08950E947212A59FC5
:10248000900DB49F900DA49F800D911D112408956F
:10249000B7FF0C943D120E943D12821B930B0895CE
:1024A000A1E21A2EAA1BBB1BFD010DC0AA1FBB1F58
:1024B000EE1FFF1FA217B307E407F50720F0A21BCA
:1024C000B30BE40BF50B661F771F881F991F1A9437
:1024D00069F760957095809590959B01AC01BD0161
:1024E000CF010895A29FB001B39FC001A39F700DBB
:1024F000811D1124911DB29F700D811D1124911D0C
:1025000008955058BB27AA270E9499120C941314BF
:102510000E94051438F00E940C1420F039F49F3FFB
:1025200019F426F40C9402140EF4E095E7FB0C94D5
:10253000FC13E92F0E94241458F3BA17620773079B
:102540008407950720F079F4A6F50C9446140EF450
:10255000E0950B2EBA2FA02D0B01B90190010C01B3
:10256000CA01A0011124FF27591B99F0593F50F4CB
:10257000503E68F11A16F040A22F232F342F442723
:10258000585FF3CF469537952795A795F04053951B
:10259000C9F77EF41F16BA0B620B730B840BBAF0EB
:1025A0009150A1F0FF0FBB1F661F771F881FC2F756
:1025B0000EC0BA0F621F731F841F48F4879577956A
:1025C0006795B795F7959E3F08F0B0CF9395880F24
:1025D00008F09927EE0F9795879508950E94D813D4
:1025E00008F481E008950E9407130C9413140E94CC
:1025F0000C1458F00E94051440F029F45F3F29F0B4
:102600000C94FC1351110C9447140C9402140E9466
:10261000241468F39923B1F3552391F3951B550BBB
:10262000BB27AA2762177307840738F09F5F5F4FA5
:10263000220F331F441FAA1FA9F335D00E2E3AF0E4
:10264000E0E832D091505040E695001CCAF72BD0FC
:10265000FE2F29D0660F771F881FBB1F261737074D
:102660004807AB07B0E809F0BB0B802DBF01FF277F
:1026700093585F4F3AF09E3F510578F00C94FC134D
:102680000C9447145F3FE4F3983ED4F38695779516
:102690006795B795F7959F5FC9F7880F911D969538
:1026A000879597F90895E1E0660F771F881FBB1F94
:1026B000621773078407BA0720F0621B730B840B41
:1026C000BA0BEE1F88F7E09508950E946C1368948A
:1026D000B1110C94471408950E942C1488F09F5750
:1026E00098F0B92F9927B751B0F0E1F0660F771F36
:1026F000881F991F1AF0BA95C9F714C0B13091F02C
:102700000E944614B1E008950C944614672F782F68
:102710008827B85F39F0B93FCCF3869577956795F0
:10272000B395D9F73EF490958095709561957F4F5C
:102730008F4F9F4F0895E89409C097FB3EF4909502
:102740008095709561957F4F8F4F9F4F9923A9F08A
:10275000F92F96E9BB279395F69587957795679519
:10276000B795F111F8CFFAF4BB0F11F460FF1BC05D
:102770006F5F7F4F8F4F9F4F16C0882311F096E9F0
:1027800011C0772321F09EE8872F762F05C066239E
:1027900071F096E8862F70E060E02AF09A95660F57
:1027A000771F881FDAF7880F9695879597F9089510
:1027B000990F0008550FAA0BE0E8FEEF1616170652
:1027C000E807F907C0F012161306E407F50798F0BA
:1027D000621B730B840B950B39F40A2661F0232BD3
:1027E000242B252B21F408950A2609F4A140A6954F
:1027F0008FEF811D811D089597F99F6780E870E034
:1028000060E008959FEF80EC089500240A94161666
:10281000170618060906089500240A9412161306CE
:10282000140605060895092E0394000C11F488235C
:1028300052F0BB0F40F4BF2B11F460FF04C06F5F78
:102840007F4F8F4F9F4F089557FD9058440F551F4E
:1028500059F05F3F71F04795880F97FB991F61F022
:102860009F3F79F087950895121613061406551F99
:10287000F2CF4695F1DF08C0161617061806991F05
:10288000F1CF86957105610508940895E894BB27FA
:1028900066277727CB0197F908950E9460140C945E
:1028A00013140E94051438F00E940C1420F0952394
:1028B00011F00C94FC130C94021411240C94471482
:1028C0000E94241470F3959FC1F3950F50E0551F9B
:1028D000629FF001729FBB27F00DB11D639FAA2775
:1028E000F00DB11DAA1F649F6627B00DA11D661FC4
:1028F000829F2227B00DA11D621F739FB00DA11DE5
:10290000621F839FA00D611D221F749F3327A00D9E
:10291000611D231F849F600D211D822F762F6A2F3A
:1029200011249F5750409AF0F1F088234AF0EE0F9F
:10293000FF1FBB1F661F771F881F91505040A9F7CC
:102940009E3F510580F00C94FC130C9447145F3F9C
:10295000E4F3983ED4F3869577956795B795F79508
:10296000E7959F5FC1F7FE2B880F911D9695879580
:1029700097F90895DB018F939F930E943D12BF91B9
:10298000AF91A29F800D911DA39F900DB29F900DBE
:1029900011240895991B79E004C0991F961708F037
:1029A000961B881F7A95C9F780950895002E0830E8
:1029B00090F0982F872F762F652F542F432F322F8B
:1029C00022270850F4CF220F331F441F551F661FC4
:1029D000771F881F991F0A95B2F7002D089597FD5C
:1029E0001094002E083098F00850232F342F452FD4
:1029F000562F672F782F892F912DF4CF1594979507
:102A000087957795679557954795379527950A95B3
:102A1000AAF71124002D0895EE0FFF1F0590F491E1
:082A2000E02D0994F894FFCFAA
:102A280064000000202D0000000000A80108013506
:102A380001F5016601440158010900706F733A20DD
:102A4800000964697374616E63653A20000D0A00B9
:102A58004C656674094D6964646C650952696768F8
:102A6800740944697374616E6365094469737461B8
:102A78006E63654C6566740944697374616E636559
:0E2A880052696768740009416374696F6E00DB
:00000001FF
